{
  "contractName": "Housing",
  "abi": [
    {
      "inputs": [],
      "payable": true,
      "stateMutability": "payable",
      "type": "constructor"
    },
    {
      "anonymous": false,
      "inputs": [
        {
          "indexed": false,
          "internalType": "address payable",
          "name": "buyerAddr",
          "type": "address"
        },
        {
          "indexed": false,
          "internalType": "string",
          "name": "name",
          "type": "string"
        }
      ],
      "name": "BuyerRegistered",
      "type": "event"
    },
    {
      "anonymous": false,
      "inputs": [
        {
          "indexed": false,
          "internalType": "address payable",
          "name": "buyerAddr",
          "type": "address"
        },
        {
          "indexed": false,
          "internalType": "uint256",
          "name": "invoiceno",
          "type": "uint256"
        },
        {
          "indexed": false,
          "internalType": "uint256",
          "name": "orderno",
          "type": "uint256"
        },
        {
          "indexed": false,
          "internalType": "uint256",
          "name": "delivery_date",
          "type": "uint256"
        },
        {
          "indexed": false,
          "internalType": "address payable",
          "name": "registor",
          "type": "address"
        }
      ],
      "name": "InvoiceSent",
      "type": "event"
    },
    {
      "anonymous": false,
      "inputs": [
        {
          "indexed": false,
          "internalType": "address payable",
          "name": "buyerAddr",
          "type": "address"
        },
        {
          "indexed": false,
          "internalType": "uint256",
          "name": "orderno",
          "type": "uint256"
        },
        {
          "indexed": false,
          "internalType": "uint256",
          "name": "real_delivey_date",
          "type": "uint256"
        },
        {
          "indexed": false,
          "internalType": "address payable",
          "name": "registor",
          "type": "address"
        }
      ],
      "name": "OwnershipDelivered",
      "type": "event"
    },
    {
      "anonymous": false,
      "inputs": [
        {
          "indexed": false,
          "internalType": "address payable",
          "name": "buyerAddr",
          "type": "address"
        },
        {
          "indexed": false,
          "internalType": "uint256",
          "name": "orderno",
          "type": "uint256"
        },
        {
          "indexed": false,
          "internalType": "uint256",
          "name": "price",
          "type": "uint256"
        },
        {
          "indexed": false,
          "internalType": "int8",
          "name": "ttype",
          "type": "int8"
        }
      ],
      "name": "PriceSent",
      "type": "event"
    },
    {
      "anonymous": false,
      "inputs": [
        {
          "indexed": false,
          "internalType": "address payable",
          "name": "registor",
          "type": "address"
        },
        {
          "indexed": false,
          "internalType": "string",
          "name": "regName",
          "type": "string"
        }
      ],
      "name": "RegistorRegistered",
      "type": "event"
    },
    {
      "anonymous": false,
      "inputs": [
        {
          "indexed": false,
          "internalType": "address payable",
          "name": "buyer",
          "type": "address"
        },
        {
          "indexed": false,
          "internalType": "uint256",
          "name": "orderno",
          "type": "uint256"
        },
        {
          "indexed": false,
          "internalType": "uint256",
          "name": "value",
          "type": "uint256"
        },
        {
          "indexed": false,
          "internalType": "uint256",
          "name": "now",
          "type": "uint256"
        }
      ],
      "name": "SafepaySent",
      "type": "event"
    },
    {
      "anonymous": false,
      "inputs": [
        {
          "indexed": false,
          "internalType": "address payable",
          "name": "buyer",
          "type": "address"
        },
        {
          "indexed": false,
          "internalType": "uint256",
          "name": "House_number",
          "type": "uint256"
        },
        {
          "indexed": false,
          "internalType": "uint256",
          "name": "orderno",
          "type": "uint256"
        }
      ],
      "name": "sendOwnership",
      "type": "event"
    },
    {
      "constant": true,
      "inputs": [],
      "name": "buyer",
      "outputs": [
        {
          "internalType": "address payable",
          "name": "",
          "type": "address"
        }
      ],
      "payable": false,
      "stateMutability": "view",
      "type": "function"
    },
    {
      "constant": true,
      "inputs": [],
      "name": "owner",
      "outputs": [
        {
          "internalType": "address payable",
          "name": "",
          "type": "address"
        }
      ],
      "payable": false,
      "stateMutability": "view",
      "type": "function"
    },
    {
      "constant": true,
      "inputs": [],
      "name": "registor",
      "outputs": [
        {
          "internalType": "address payable",
          "name": "",
          "type": "address"
        }
      ],
      "payable": false,
      "stateMutability": "view",
      "type": "function"
    },
    {
      "constant": false,
      "inputs": [
        {
          "internalType": "address payable",
          "name": "addr",
          "type": "address"
        }
      ],
      "name": "setBuyer",
      "outputs": [],
      "payable": true,
      "stateMutability": "payable",
      "type": "function"
    },
    {
      "constant": false,
      "inputs": [
        {
          "internalType": "address payable",
          "name": "addr",
          "type": "address"
        }
      ],
      "name": "setRegistor",
      "outputs": [],
      "payable": true,
      "stateMutability": "payable",
      "type": "function"
    },
    {
      "constant": false,
      "inputs": [
        {
          "internalType": "uint256",
          "name": "House_number",
          "type": "uint256"
        }
      ],
      "name": "sendOwnershipInquiry",
      "outputs": [],
      "payable": true,
      "stateMutability": "payable",
      "type": "function"
    },
    {
      "constant": false,
      "inputs": [
        {
          "internalType": "uint256",
          "name": "number",
          "type": "uint256"
        }
      ],
      "name": "getOwnershipInfo",
      "outputs": [
        {
          "internalType": "address",
          "name": "buyerAddr",
          "type": "address"
        },
        {
          "internalType": "uint256",
          "name": "House_number",
          "type": "uint256"
        },
        {
          "internalType": "uint256",
          "name": "orderno",
          "type": "uint256"
        },
        {
          "internalType": "uint256",
          "name": "safepay",
          "type": "uint256"
        },
        {
          "internalType": "uint256",
          "name": "delivery_price",
          "type": "uint256"
        },
        {
          "internalType": "uint256",
          "name": "delivey_safepay",
          "type": "uint256"
        }
      ],
      "payable": true,
      "stateMutability": "payable",
      "type": "function"
    },
    {
      "constant": false,
      "inputs": [
        {
          "internalType": "uint256",
          "name": "orderno",
          "type": "uint256"
        },
        {
          "internalType": "uint256",
          "name": "price",
          "type": "uint256"
        },
        {
          "internalType": "int8",
          "name": "ttype",
          "type": "int8"
        }
      ],
      "name": "sendPrice",
      "outputs": [],
      "payable": true,
      "stateMutability": "payable",
      "type": "function"
    },
    {
      "constant": false,
      "inputs": [
        {
          "internalType": "uint256",
          "name": "orderno",
          "type": "uint256"
        }
      ],
      "name": "sendSafepay",
      "outputs": [],
      "payable": true,
      "stateMutability": "payable",
      "type": "function"
    },
    {
      "constant": false,
      "inputs": [
        {
          "internalType": "uint256",
          "name": "orderno",
          "type": "uint256"
        },
        {
          "internalType": "uint256",
          "name": "delivery_date",
          "type": "uint256"
        }
      ],
      "name": "sendInvoice",
      "outputs": [],
      "payable": true,
      "stateMutability": "payable",
      "type": "function"
    },
    {
      "constant": false,
      "inputs": [
        {
          "internalType": "uint256",
          "name": "invoiceno",
          "type": "uint256"
        }
      ],
      "name": "getInvoice",
      "outputs": [
        {
          "internalType": "address",
          "name": "buyer",
          "type": "address"
        },
        {
          "internalType": "uint256",
          "name": "delivery_date",
          "type": "uint256"
        },
        {
          "internalType": "address",
          "name": "registor",
          "type": "address"
        }
      ],
      "payable": false,
      "stateMutability": "nonpayable",
      "type": "function"
    },
    {
      "constant": false,
      "inputs": [
        {
          "internalType": "uint256",
          "name": "invoiceno",
          "type": "uint256"
        },
        {
          "internalType": "uint256",
          "name": "timestamp",
          "type": "uint256"
        }
      ],
      "name": "delivery",
      "outputs": [],
      "payable": true,
      "stateMutability": "payable",
      "type": "function"
    }
  ],
  "bytecode": "0x6080604052336000806101000a81548173ffffffffffffffffffffffffffffffffffffffff021916908373ffffffffffffffffffffffffffffffffffffffff16021790555061126a806100536000396000f3fe6080604052600436106100a75760003560e01c8063aa28483911610064578063aa284839146102c3578063be366feb1461031a578063c3a1e5b31461035e578063c9d96ac5146103a3578063dffa784114610434578063fe28524814610462576100a7565b80633a23cc0a146100ac5780636ca1608b146101615780636e0fa7be146101995780637150d8ae146101d15780638da5cb5b14610228578063a3f09ad61461027f575b600080fd5b3480156100b857600080fd5b506100e5600480360360208110156100cf57600080fd5b8101908080359060200190929190505050610490565b604051808473ffffffffffffffffffffffffffffffffffffffff1673ffffffffffffffffffffffffffffffffffffffff1681526020018381526020018273ffffffffffffffffffffffffffffffffffffffff1673ffffffffffffffffffffffffffffffffffffffff168152602001935050505060405180910390f35b6101976004803603604081101561017757600080fd5b810190808035906020019092919080359060200190929190505050610537565b005b6101cf600480360360408110156101af57600080fd5b8101908080359060200190929190803590602001909291905050506107cc565b005b3480156101dd57600080fd5b506101e6610a61565b604051808273ffffffffffffffffffffffffffffffffffffffff1673ffffffffffffffffffffffffffffffffffffffff16815260200191505060405180910390f35b34801561023457600080fd5b5061023d610a87565b604051808273ffffffffffffffffffffffffffffffffffffffff1673ffffffffffffffffffffffffffffffffffffffff16815260200191505060405180910390f35b6102c16004803603602081101561029557600080fd5b81019080803573ffffffffffffffffffffffffffffffffffffffff169060200190929190505050610aac565b005b3480156102cf57600080fd5b506102d8610af0565b604051808273ffffffffffffffffffffffffffffffffffffffff1673ffffffffffffffffffffffffffffffffffffffff16815260200191505060405180910390f35b61035c6004803603602081101561033057600080fd5b81019080803573ffffffffffffffffffffffffffffffffffffffff169060200190929190505050610b16565b005b6103a16004803603606081101561037457600080fd5b810190808035906020019092919080359060200190929190803560000b9060200190929190505050610b5a565b005b6103cf600480360360208110156103b957600080fd5b8101908080359060200190929190505050610d23565b604051808773ffffffffffffffffffffffffffffffffffffffff1673ffffffffffffffffffffffffffffffffffffffff168152602001868152602001858152602001848152602001838152602001828152602001965050505050505060405180910390f35b6104606004803603602081101561044a57600080fd5b8101908080359060200190929190505050610de8565b005b61048e6004803603602081101561047857600080fd5b81019080803590602001909291905050506110d8565b005b60008060006004600085815260200190815260200160002060020160009054906101000a900460ff166104c257600080fd5b60006004600086815260200190815260200160002090506000600360008360000154815260200190815260200160002090508481600301600401548260030160000160009054906101000a900473ffffffffffffffffffffffffffffffffffffffff1680905094509450945050509193909250565b6004600083815260200190815260200160002060020160009054906101000a900460ff1661056457600080fd5b60006004600084815260200190815260200160002090506000600360008360000154815260200190815260200160002090503373ffffffffffffffffffffffffffffffffffffffff168160030160000160009054906101000a900473ffffffffffffffffffffffffffffffffffffffff1673ffffffffffffffffffffffffffffffffffffffff16146105f557600080fd5b7f03e7f950354d4436d0ca487ef6c572350b74f1d5b4942b978ab526b53dc59a90600160009054906101000a900473ffffffffffffffffffffffffffffffffffffffff1685858460030160000160009054906101000a900473ffffffffffffffffffffffffffffffffffffffff16604051808573ffffffffffffffffffffffffffffffffffffffff1673ffffffffffffffffffffffffffffffffffffffff1681526020018481526020018381526020018273ffffffffffffffffffffffffffffffffffffffff1673ffffffffffffffffffffffffffffffffffffffff16815260200194505050505060405180910390a16000809054906101000a900473ffffffffffffffffffffffffffffffffffffffff1673ffffffffffffffffffffffffffffffffffffffff166108fc82600201549081150290604051600060405180830381858888f19350505050158015610750573d6000803e3d6000fd5b508060030160000160009054906101000a900473ffffffffffffffffffffffffffffffffffffffff1673ffffffffffffffffffffffffffffffffffffffff166108fc82600301600201549081150290604051600060405180830381858888f193505050501580156107c5573d6000803e3d6000fd5b5050505050565b60036000838152602001908152602001600020600a0160009054906101000a900460ff166107f957600080fd5b3373ffffffffffffffffffffffffffffffffffffffff166000809054906101000a900473ffffffffffffffffffffffffffffffffffffffff1673ffffffffffffffffffffffffffffffffffffffff161461085257600080fd5b6006600081548092919060010191905055506040518060600160405280838152602001600654815260200160011515815250600460006006548152602001908152602001600020600082015181600001556020820151816001015560408201518160020160006101000a81548160ff021916908315150217905550905050806003600084815260200190815260200160002060030160040181905550600260009054906101000a900473ffffffffffffffffffffffffffffffffffffffff166003600084815260200190815260200160002060030160000160006101000a81548173ffffffffffffffffffffffffffffffffffffffff021916908373ffffffffffffffffffffffffffffffffffffffff1602179055507fbc1c01dc0d1e366f76a22e7db8af8028033bd0a521feaf529046a6bc413ce0f0600160009054906101000a900473ffffffffffffffffffffffffffffffffffffffff166006548484600260009054906101000a900473ffffffffffffffffffffffffffffffffffffffff16604051808673ffffffffffffffffffffffffffffffffffffffff1673ffffffffffffffffffffffffffffffffffffffff1681526020018581526020018481526020018381526020018273ffffffffffffffffffffffffffffffffffffffff1673ffffffffffffffffffffffffffffffffffffffff1681526020019550505050505060405180910390a15050565b600160009054906101000a900473ffffffffffffffffffffffffffffffffffffffff1681565b6000809054906101000a900473ffffffffffffffffffffffffffffffffffffffff1681565b80600160006101000a81548173ffffffffffffffffffffffffffffffffffffffff021916908373ffffffffffffffffffffffffffffffffffffffff16021790555050565b600260009054906101000a900473ffffffffffffffffffffffffffffffffffffffff1681565b80600260006101000a81548173ffffffffffffffffffffffffffffffffffffffff021916908373ffffffffffffffffffffffffffffffffffffffff16021790555050565b6000809054906101000a900473ffffffffffffffffffffffffffffffffffffffff1673ffffffffffffffffffffffffffffffffffffffff163373ffffffffffffffffffffffffffffffffffffffff1614610bb357600080fd5b60036000848152602001908152602001600020600a0160009054906101000a900460ff16610be057600080fd5b60018160000b1480610bf5575060028160000b145b610bfe57600080fd5b60018160000b1415610c2a57816003600085815260200190815260200160002060010181905550610c7b565b81600360008581526020019081526020016000206003016001018190555060016003600085815260200190815260200160002060030160060160006101000a81548160ff0219169083151502179055505b7faf54ca7c1ecf75ea1c151f265e9ab3eeecb27d19e8d3ec6b7e199414dd0c1ed6600160009054906101000a900473ffffffffffffffffffffffffffffffffffffffff16848484604051808573ffffffffffffffffffffffffffffffffffffffff1673ffffffffffffffffffffffffffffffffffffffff1681526020018481526020018381526020018260000b60000b815260200194505050505060405180910390a1505050565b60008060008060008060036000888152602001908152602001600020600a0160009054906101000a900460ff16610d5957600080fd5b856003600089815260200190815260200160002060000154600360008a815260200190815260200160002060010154600360008b815260200190815260200160002060020154600360008c815260200190815260200160002060030160010154600360008d81526020019081526020016000206003016002015495509550955095509550955091939550919395565b600160009054906101000a900473ffffffffffffffffffffffffffffffffffffffff1673ffffffffffffffffffffffffffffffffffffffff163373ffffffffffffffffffffffffffffffffffffffff1614610e4257600080fd5b6005600081548092919060010191905055506040518060a0016040528082815260200160008152602001600081526020016040518060e00160405280600260009054906101000a900473ffffffffffffffffffffffffffffffffffffffff1673ffffffffffffffffffffffffffffffffffffffff1681526020016000815260200160008152602001600160009054906101000a900473ffffffffffffffffffffffffffffffffffffffff1673ffffffffffffffffffffffffffffffffffffffff16815260200160008152602001600081526020016000151581525081526020016001151581525060036000600554815260200190815260200160002060008201518160000155602082015181600101556040820151816002015560608201518160030160008201518160000160006101000a81548173ffffffffffffffffffffffffffffffffffffffff021916908373ffffffffffffffffffffffffffffffffffffffff160217905550602082015181600101556040820151816002015560608201518160030160006101000a81548173ffffffffffffffffffffffffffffffffffffffff021916908373ffffffffffffffffffffffffffffffffffffffff1602179055506080820151816004015560a0820151816005015560c08201518160060160006101000a81548160ff0219169083151502179055505050608082015181600a0160006101000a81548160ff0219169083151502179055509050507feea3f31353a0d1d573cfa6f57243f81ab40a67d29767e957a0f0d6dbe979cf5e3382600554604051808473ffffffffffffffffffffffffffffffffffffffff1673ffffffffffffffffffffffffffffffffffffffff168152602001838152602001828152602001935050505060405180910390a150565b60036000828152602001908152602001600020600a0160009054906101000a900460ff1661110557600080fd5b3373ffffffffffffffffffffffffffffffffffffffff16600160009054906101000a900473ffffffffffffffffffffffffffffffffffffffff1673ffffffffffffffffffffffffffffffffffffffff161461115f57600080fd5b3460036000838152602001908152602001600020600301600101546003600084815260200190815260200160002060010154011461119c57600080fd5b3460036000838152602001908152602001600020600201819055507f4ca09f9926d2e48ef31cb6b14dbda230c7420702b8a8f5b878dd572c593e99d233823442604051808573ffffffffffffffffffffffffffffffffffffffff1673ffffffffffffffffffffffffffffffffffffffff16815260200184815260200183815260200182815260200194505050505060405180910390a15056fea265627a7a723158207fec0dd67180e3778c8002aee00589bd81c51bb60a85795ce7fab99e4c0ebe1c64736f6c634300050c0032",
  "source": "pragma solidity ^0.5.12;\r\n\r\ncontract Housing {\r\n    address payable public owner;\r\n    \r\n    address payable public buyer;\r\n    \r\n    address payable public registor;\r\n\r\n    struct Buyer {\r\n        address payable addr;\r\n        string name;\r\n\r\n        bool init;\r\n    }\r\n    struct Registor{\r\n        address payable regAdrr;\r\n        string regName;\r\n\r\n        bool init;\r\n    }\r\n    struct Registry {\r\n        address payable registor;\r\n        uint price;\r\n        uint safepay;\r\n        address payer;\r\n        uint date;\r\n        uint real_date;\r\n\r\n    bool init;\r\n  }\r\n  struct Ownership {\r\n    uint House_number;\r\n    uint price;\r\n    uint safepay;\r\n    Registry registry;\r\n\r\n    bool init;\r\n  }\r\n  \r\n  struct Invoice {\r\n    uint orderno;\r\n    uint number;\r\n\r\n    bool init;\r\n  }\r\n  \r\n    event sendOwnership(address payable buyer, uint House_number, uint orderno);\r\n    \r\n    event BuyerRegistered(address payable buyerAddr, string name);\r\n    \r\n    event RegistorRegistered(address payable registor, string regName);\r\n    \r\n    event PriceSent(address payable buyerAddr, uint orderno, uint price, int8 ttype);\r\n\r\n    event SafepaySent(address payable buyer, uint orderno, uint value, uint now);\r\n    \r\n     event InvoiceSent(address payable buyerAddr, uint invoiceno, uint orderno, uint delivery_date, address payable registor);\r\n    \r\n    event OwnershipDelivered(address payable buyerAddr, uint orderno, uint real_delivey_date, address payable registor);\r\n    \r\n    constructor() public payable {\r\n    \r\n    owner = msg.sender;\r\n   }\r\n   function setBuyer(address payable addr) payable public{\r\n    buyer = addr;\r\n   }\r\n   function setRegistor(address payable addr) payable public{\r\n    registor = addr;\r\n   }\r\n    mapping (uint => Ownership) houses;\r\n    mapping (uint => Invoice) invoices;\r\n     uint ownershipseq;\r\n       uint invoiceseq;\r\n    \r\n    function sendOwnershipInquiry(uint House_number) payable public {\r\n        require(msg.sender == buyer);\r\n    \r\n        /// Increment the order sequence\r\n        ownershipseq++;\r\n    \r\n        /// Create the order register\r\n        houses[ownershipseq] = Ownership(House_number, 0, 0, Registry(registor, 0, 0, buyer, 0, 0, false), true);\r\n    \r\n        /// Trigger the event\r\n       emit sendOwnership(msg.sender, House_number, ownershipseq);\r\n            \r\n    }\r\n    function getOwnershipInfo(uint number) public payable returns (address buyerAddr, uint House_number, uint orderno, uint safepay, uint delivery_price, uint delivey_safepay) {\r\n    \r\n    /// Validate the order number\r\n    require(houses[number].init);\r\n\r\n    /// Return the order data\r\n    return(buyerAddr, houses[number].House_number, houses[number].price, houses[number].safepay, houses[number].registry.price, houses[number].registry.safepay);\r\n  }\r\n  function sendPrice(uint orderno, uint price, int8 ttype) payable public {\r\n  \r\n    /// Only the owner can use this function\r\n    require(msg.sender == owner);\r\n\r\n    /// Validate the order number\r\n    require(houses[orderno].init);\r\n\r\n    /// Validate the type\r\n    ///  1=order\r\n    ///  2=shipment\r\n    require(ttype == 1 || ttype == 2);\r\n\r\n    if(ttype == 1){/// Price for Order\r\n\r\n      /// Update the order price\r\n      houses[orderno].price = price;\r\n\r\n    } else {/// Price for Shipment\r\n\r\n      /// Update the shipment price\r\n      houses[orderno].registry.price = price;\r\n      houses[orderno].registry.init  = true;\r\n    }\r\n\r\n    /// Trigger the event\r\n    emit PriceSent(buyer, orderno, price, ttype);\r\n\r\n  }\r\n\r\n  /// The function to send the value of order's price\r\n  ///  This value will be blocked until the delivery of order\r\n  ///  requires fee\r\n  function sendSafepay(uint orderno) payable public {\r\n\r\n    /// Validate the order number\r\n    require(houses[orderno].init);\r\n\r\n    /// Just the buyer can make safepay\r\n    require(buyer == msg.sender);\r\n\r\n    /// The order's value plus the shipment value must equal to msg.value\r\n    require((houses[orderno].price + houses[orderno].registry.price) == msg.value);\r\n\r\n    houses[orderno].safepay = msg.value;\r\n\r\n    emit SafepaySent(msg.sender, orderno, msg.value, now);\r\n  }\r\n  function sendInvoice(uint orderno, uint delivery_date) payable public {\r\n\r\n    require(houses[orderno].init);\r\n\r\n    require(owner == msg.sender);\r\n\r\n    invoiceseq++;\r\n\r\n    invoices[invoiceseq] = Invoice(orderno, invoiceseq, true);\r\n\r\n    houses[orderno].registry.date    = delivery_date;\r\n    houses[orderno].registry.registor = registor;\r\n\r\n   emit InvoiceSent(buyer, invoiceseq, orderno, delivery_date, registor);\r\n  }\r\n\r\n  function getInvoice(uint invoiceno) public returns (address buyer, uint delivery_date, address registor){\r\n  \r\n    require(invoices[invoiceno].init);\r\n\r\n    Invoice storage _invoice = invoices[invoiceno];\r\n    Ownership storage _currentOwner     = houses[_invoice.orderno];\r\n\r\n    return (buyer, _currentOwner.registry.date, _currentOwner.registry.registor);\r\n  }\r\n    function delivery(uint invoiceno, uint timestamp) payable public {\r\n\r\n    /// Validate the invoice number\r\n    require(invoices[invoiceno].init);\r\n\r\n    Invoice storage _invoice = invoices[invoiceno];\r\n    Ownership storage _currentOwner     = houses[_invoice.orderno];\r\n\r\n    /// Just the courier can call this function\r\n    require(_currentOwner.registry.registor == msg.sender);\r\n\r\n    emit OwnershipDelivered(buyer, invoiceno, timestamp, _currentOwner.registry.registor);\r\n\r\n    /// Payout the Order to the seller\r\n    owner.transfer(_currentOwner.safepay);\r\n\r\n    /// Payout the Shipment to the courier\r\n    _currentOwner.registry.registor.transfer(_currentOwner.registry.safepay);\r\n\r\n  }\r\n}",
  "sourcePath": "F:/Desktop/truffle/contracts/Housing.sol",
  "compiler": {
    "name": "solc",
    "version": "0.5.12+commit.7709ece9.Emscripten.clang"
  },
  "schemaVersion": "3.0.19",
  "updatedAt": "2019-12-17T13:25:37.111Z",
  "networkType": "ethereum",
  "devdoc": {
    "methods": {}
  },
  "userdoc": {
    "methods": {
      "sendSafepay(uint256)": {
        "notice": "The function to send the value of order's price  This value will be blocked until the delivery of order  requires fee"
      }
    }
  }
}