{
  "contractName": "Housing",
  "abi": [
    {
      "inputs": [],
      "payable": true,
      "stateMutability": "payable",
      "type": "constructor"
    },
    {
      "anonymous": false,
      "inputs": [
        {
          "indexed": false,
          "internalType": "address payable",
          "name": "buyerAddr",
          "type": "address"
        },
        {
          "indexed": false,
          "internalType": "string",
          "name": "name",
          "type": "string"
        }
      ],
      "name": "BuyerRegistered",
      "type": "event"
    },
    {
      "anonymous": false,
      "inputs": [
        {
          "indexed": false,
          "internalType": "address payable",
          "name": "buyerAddr",
          "type": "address"
        },
        {
          "indexed": false,
          "internalType": "uint256",
          "name": "invoiceno",
          "type": "uint256"
        },
        {
          "indexed": false,
          "internalType": "uint256",
          "name": "orderno",
          "type": "uint256"
        },
        {
          "indexed": false,
          "internalType": "uint256",
          "name": "delivery_date",
          "type": "uint256"
        },
        {
          "indexed": false,
          "internalType": "address payable",
          "name": "registor",
          "type": "address"
        }
      ],
      "name": "InvoiceSent",
      "type": "event"
    },
    {
      "anonymous": false,
      "inputs": [
        {
          "indexed": false,
          "internalType": "address payable",
          "name": "buyerAddr",
          "type": "address"
        },
        {
          "indexed": false,
          "internalType": "uint256",
          "name": "orderno",
          "type": "uint256"
        },
        {
          "indexed": false,
          "internalType": "uint256",
          "name": "real_delivey_date",
          "type": "uint256"
        },
        {
          "indexed": false,
          "internalType": "address payable",
          "name": "registor",
          "type": "address"
        }
      ],
      "name": "OwnershipDelivered",
      "type": "event"
    },
    {
      "anonymous": false,
      "inputs": [
        {
          "indexed": false,
          "internalType": "address payable",
          "name": "buyerAddr",
          "type": "address"
        },
        {
          "indexed": false,
          "internalType": "uint256",
          "name": "orderno",
          "type": "uint256"
        },
        {
          "indexed": false,
          "internalType": "uint256",
          "name": "price",
          "type": "uint256"
        },
        {
          "indexed": false,
          "internalType": "int8",
          "name": "ttype",
          "type": "int8"
        }
      ],
      "name": "PriceSent",
      "type": "event"
    },
    {
      "anonymous": false,
      "inputs": [
        {
          "indexed": false,
          "internalType": "address payable",
          "name": "registor",
          "type": "address"
        },
        {
          "indexed": false,
          "internalType": "string",
          "name": "regName",
          "type": "string"
        }
      ],
      "name": "RegistorRegistered",
      "type": "event"
    },
    {
      "anonymous": false,
      "inputs": [
        {
          "indexed": false,
          "internalType": "address payable",
          "name": "buyer",
          "type": "address"
        },
        {
          "indexed": false,
          "internalType": "uint256",
          "name": "orderno",
          "type": "uint256"
        },
        {
          "indexed": false,
          "internalType": "uint256",
          "name": "value",
          "type": "uint256"
        },
        {
          "indexed": false,
          "internalType": "uint256",
          "name": "now",
          "type": "uint256"
        }
      ],
      "name": "SafepaySent",
      "type": "event"
    },
    {
      "anonymous": false,
      "inputs": [
        {
          "indexed": false,
          "internalType": "address payable",
          "name": "buyer",
          "type": "address"
        },
        {
          "indexed": false,
          "internalType": "uint256",
          "name": "House_number",
          "type": "uint256"
        },
        {
          "indexed": false,
          "internalType": "uint256",
          "name": "orderno",
          "type": "uint256"
        }
      ],
      "name": "sendOwnership",
      "type": "event"
    },
    {
      "constant": true,
      "inputs": [],
      "name": "buyer",
      "outputs": [
        {
          "internalType": "address payable",
          "name": "",
          "type": "address"
        }
      ],
      "payable": false,
      "stateMutability": "view",
      "type": "function"
    },
    {
      "constant": true,
      "inputs": [],
      "name": "owner",
      "outputs": [
        {
          "internalType": "address payable",
          "name": "",
          "type": "address"
        }
      ],
      "payable": false,
      "stateMutability": "view",
      "type": "function"
    },
    {
      "constant": true,
      "inputs": [],
      "name": "registor",
      "outputs": [
        {
          "internalType": "address payable",
          "name": "",
          "type": "address"
        }
      ],
      "payable": false,
      "stateMutability": "view",
      "type": "function"
    },
    {
      "constant": false,
      "inputs": [
        {
          "internalType": "address payable",
          "name": "addr",
          "type": "address"
        }
      ],
      "name": "setBuyer",
      "outputs": [],
      "payable": true,
      "stateMutability": "payable",
      "type": "function"
    },
    {
      "constant": false,
      "inputs": [
        {
          "internalType": "address payable",
          "name": "addr",
          "type": "address"
        }
      ],
      "name": "setRegistor",
      "outputs": [],
      "payable": true,
      "stateMutability": "payable",
      "type": "function"
    },
    {
      "constant": false,
      "inputs": [
        {
          "internalType": "uint256",
          "name": "House_number",
          "type": "uint256"
        }
      ],
      "name": "sendOwnershipInquiry",
      "outputs": [],
      "payable": false,
      "stateMutability": "nonpayable",
      "type": "function"
    },
    {
      "constant": false,
      "inputs": [
        {
          "internalType": "uint256",
          "name": "number",
          "type": "uint256"
        }
      ],
      "name": "getOwnershipInfo",
      "outputs": [
        {
          "internalType": "address",
          "name": "buyerAddr",
          "type": "address"
        },
        {
          "internalType": "uint256",
          "name": "House_number",
          "type": "uint256"
        },
        {
          "internalType": "uint256",
          "name": "orderno",
          "type": "uint256"
        },
        {
          "internalType": "uint256",
          "name": "safepay",
          "type": "uint256"
        },
        {
          "internalType": "uint256",
          "name": "delivery_price",
          "type": "uint256"
        },
        {
          "internalType": "uint256",
          "name": "delivey_safepay",
          "type": "uint256"
        }
      ],
      "payable": true,
      "stateMutability": "payable",
      "type": "function"
    },
    {
      "constant": false,
      "inputs": [
        {
          "internalType": "uint256",
          "name": "orderno",
          "type": "uint256"
        },
        {
          "internalType": "uint256",
          "name": "price",
          "type": "uint256"
        },
        {
          "internalType": "int8",
          "name": "ttype",
          "type": "int8"
        }
      ],
      "name": "sendPrice",
      "outputs": [],
      "payable": false,
      "stateMutability": "nonpayable",
      "type": "function"
    },
    {
      "constant": false,
      "inputs": [
        {
          "internalType": "uint256",
          "name": "House_number",
          "type": "uint256"
        }
      ],
      "name": "sendSafepay",
      "outputs": [],
      "payable": true,
      "stateMutability": "payable",
      "type": "function"
    },
    {
      "constant": false,
      "inputs": [
        {
          "internalType": "uint256",
          "name": "House_number",
          "type": "uint256"
        },
        {
          "internalType": "uint256",
          "name": "delivery_date",
          "type": "uint256"
        }
      ],
      "name": "sendInvoice",
      "outputs": [],
      "payable": false,
      "stateMutability": "nonpayable",
      "type": "function"
    },
    {
      "constant": false,
      "inputs": [
        {
          "internalType": "uint256",
          "name": "invoiceno",
          "type": "uint256"
        }
      ],
      "name": "getInvoice",
      "outputs": [
        {
          "internalType": "address",
          "name": "buyer",
          "type": "address"
        },
        {
          "internalType": "uint256",
          "name": "delivery_date",
          "type": "uint256"
        },
        {
          "internalType": "address",
          "name": "registor",
          "type": "address"
        }
      ],
      "payable": false,
      "stateMutability": "nonpayable",
      "type": "function"
    },
    {
      "constant": false,
      "inputs": [
        {
          "internalType": "uint256",
          "name": "invoiceno",
          "type": "uint256"
        },
        {
          "internalType": "uint256",
          "name": "timestamp",
          "type": "uint256"
        }
      ],
      "name": "delivery",
      "outputs": [],
      "payable": true,
      "stateMutability": "payable",
      "type": "function"
    }
  ],
  "bytecode": "0x6080604052336000806101000a81548173ffffffffffffffffffffffffffffffffffffffff021916908373ffffffffffffffffffffffffffffffffffffffff160217905550611238806100536000396000f3fe6080604052600436106100a75760003560e01c8063aa28483911610064578063aa284839146102d0578063be366feb14610327578063c3a1e5b31461036b578063c9d96ac5146103bd578063dffa78411461044e578063fe28524814610489576100a7565b80633a23cc0a146100ac5780636ca1608b146101615780636e0fa7be146101995780637150d8ae146101de5780638da5cb5b14610235578063a3f09ad61461028c575b600080fd5b3480156100b857600080fd5b506100e5600480360360208110156100cf57600080fd5b81019080803590602001909291905050506104b7565b604051808473ffffffffffffffffffffffffffffffffffffffff1673ffffffffffffffffffffffffffffffffffffffff1681526020018381526020018273ffffffffffffffffffffffffffffffffffffffff1673ffffffffffffffffffffffffffffffffffffffff168152602001935050505060405180910390f35b6101976004803603604081101561017757600080fd5b81019080803590602001909291908035906020019092919050505061055e565b005b3480156101a557600080fd5b506101dc600480360360408110156101bc57600080fd5b8101908080359060200190929190803590602001909291905050506107f3565b005b3480156101ea57600080fd5b506101f3610a88565b604051808273ffffffffffffffffffffffffffffffffffffffff1673ffffffffffffffffffffffffffffffffffffffff16815260200191505060405180910390f35b34801561024157600080fd5b5061024a610aae565b604051808273ffffffffffffffffffffffffffffffffffffffff1673ffffffffffffffffffffffffffffffffffffffff16815260200191505060405180910390f35b6102ce600480360360208110156102a257600080fd5b81019080803573ffffffffffffffffffffffffffffffffffffffff169060200190929190505050610ad3565b005b3480156102dc57600080fd5b506102e5610b17565b604051808273ffffffffffffffffffffffffffffffffffffffff1673ffffffffffffffffffffffffffffffffffffffff16815260200191505060405180910390f35b6103696004803603602081101561033d57600080fd5b81019080803573ffffffffffffffffffffffffffffffffffffffff169060200190929190505050610b3d565b005b34801561037757600080fd5b506103bb6004803603606081101561038e57600080fd5b810190808035906020019092919080359060200190929190803560000b9060200190929190505050610b81565b005b6103e9600480360360208110156103d357600080fd5b8101908080359060200190929190505050610cf1565b604051808773ffffffffffffffffffffffffffffffffffffffff1673ffffffffffffffffffffffffffffffffffffffff168152602001868152602001858152602001848152602001838152602001828152602001965050505050505060405180910390f35b34801561045a57600080fd5b506104876004803603602081101561047157600080fd5b8101908080359060200190929190505050610db6565b005b6104b56004803603602081101561049f57600080fd5b81019080803590602001909291905050506110a6565b005b60008060006004600085815260200190815260200160002060020160009054906101000a900460ff166104e957600080fd5b60006004600086815260200190815260200160002090506000600360008360000154815260200190815260200160002090508481600301600401548260030160000160009054906101000a900473ffffffffffffffffffffffffffffffffffffffff1680905094509450945050509193909250565b6004600083815260200190815260200160002060020160009054906101000a900460ff1661058b57600080fd5b60006004600084815260200190815260200160002090506000600360008360000154815260200190815260200160002090503373ffffffffffffffffffffffffffffffffffffffff168160030160000160009054906101000a900473ffffffffffffffffffffffffffffffffffffffff1673ffffffffffffffffffffffffffffffffffffffff161461061c57600080fd5b7f03e7f950354d4436d0ca487ef6c572350b74f1d5b4942b978ab526b53dc59a90600160009054906101000a900473ffffffffffffffffffffffffffffffffffffffff1685858460030160000160009054906101000a900473ffffffffffffffffffffffffffffffffffffffff16604051808573ffffffffffffffffffffffffffffffffffffffff1673ffffffffffffffffffffffffffffffffffffffff1681526020018481526020018381526020018273ffffffffffffffffffffffffffffffffffffffff1673ffffffffffffffffffffffffffffffffffffffff16815260200194505050505060405180910390a16000809054906101000a900473ffffffffffffffffffffffffffffffffffffffff1673ffffffffffffffffffffffffffffffffffffffff166108fc82600201549081150290604051600060405180830381858888f19350505050158015610777573d6000803e3d6000fd5b508060030160000160009054906101000a900473ffffffffffffffffffffffffffffffffffffffff1673ffffffffffffffffffffffffffffffffffffffff166108fc82600301600201549081150290604051600060405180830381858888f193505050501580156107ec573d6000803e3d6000fd5b5050505050565b60036000838152602001908152602001600020600a0160009054906101000a900460ff1661082057600080fd5b3373ffffffffffffffffffffffffffffffffffffffff166000809054906101000a900473ffffffffffffffffffffffffffffffffffffffff1673ffffffffffffffffffffffffffffffffffffffff161461087957600080fd5b6006600081548092919060010191905055506040518060600160405280838152602001600654815260200160011515815250600460006006548152602001908152602001600020600082015181600001556020820151816001015560408201518160020160006101000a81548160ff021916908315150217905550905050806003600084815260200190815260200160002060030160040181905550600260009054906101000a900473ffffffffffffffffffffffffffffffffffffffff166003600084815260200190815260200160002060030160000160006101000a81548173ffffffffffffffffffffffffffffffffffffffff021916908373ffffffffffffffffffffffffffffffffffffffff1602179055507fbc1c01dc0d1e366f76a22e7db8af8028033bd0a521feaf529046a6bc413ce0f0600160009054906101000a900473ffffffffffffffffffffffffffffffffffffffff166006548484600260009054906101000a900473ffffffffffffffffffffffffffffffffffffffff16604051808673ffffffffffffffffffffffffffffffffffffffff1673ffffffffffffffffffffffffffffffffffffffff1681526020018581526020018481526020018381526020018273ffffffffffffffffffffffffffffffffffffffff1673ffffffffffffffffffffffffffffffffffffffff1681526020019550505050505060405180910390a15050565b600160009054906101000a900473ffffffffffffffffffffffffffffffffffffffff1681565b6000809054906101000a900473ffffffffffffffffffffffffffffffffffffffff1681565b80600160006101000a81548173ffffffffffffffffffffffffffffffffffffffff021916908373ffffffffffffffffffffffffffffffffffffffff16021790555050565b600260009054906101000a900473ffffffffffffffffffffffffffffffffffffffff1681565b80600260006101000a81548173ffffffffffffffffffffffffffffffffffffffff021916908373ffffffffffffffffffffffffffffffffffffffff16021790555050565b60036000848152602001908152602001600020600a0160009054906101000a900460ff16610bae57600080fd5b60018160000b1480610bc3575060028160000b145b610bcc57600080fd5b60018160000b1415610bf857816003600085815260200190815260200160002060010181905550610c49565b81600360008581526020019081526020016000206003016001018190555060016003600085815260200190815260200160002060030160060160006101000a81548160ff0219169083151502179055505b7faf54ca7c1ecf75ea1c151f265e9ab3eeecb27d19e8d3ec6b7e199414dd0c1ed6600160009054906101000a900473ffffffffffffffffffffffffffffffffffffffff16848484604051808573ffffffffffffffffffffffffffffffffffffffff1673ffffffffffffffffffffffffffffffffffffffff1681526020018481526020018381526020018260000b60000b815260200194505050505060405180910390a1505050565b60008060008060008060036000888152602001908152602001600020600a0160009054906101000a900460ff16610d2757600080fd5b856003600089815260200190815260200160002060000154600360008a815260200190815260200160002060010154600360008b815260200190815260200160002060020154600360008c815260200190815260200160002060030160010154600360008d81526020019081526020016000206003016002015495509550955095509550955091939550919395565b600160009054906101000a900473ffffffffffffffffffffffffffffffffffffffff1673ffffffffffffffffffffffffffffffffffffffff163373ffffffffffffffffffffffffffffffffffffffff1614610e1057600080fd5b6005600081548092919060010191905055506040518060a0016040528082815260200160008152602001600081526020016040518060e00160405280600260009054906101000a900473ffffffffffffffffffffffffffffffffffffffff1673ffffffffffffffffffffffffffffffffffffffff1681526020016000815260200160008152602001600160009054906101000a900473ffffffffffffffffffffffffffffffffffffffff1673ffffffffffffffffffffffffffffffffffffffff16815260200160008152602001600081526020016000151581525081526020016001151581525060036000600554815260200190815260200160002060008201518160000155602082015181600101556040820151816002015560608201518160030160008201518160000160006101000a81548173ffffffffffffffffffffffffffffffffffffffff021916908373ffffffffffffffffffffffffffffffffffffffff160217905550602082015181600101556040820151816002015560608201518160030160006101000a81548173ffffffffffffffffffffffffffffffffffffffff021916908373ffffffffffffffffffffffffffffffffffffffff1602179055506080820151816004015560a0820151816005015560c08201518160060160006101000a81548160ff0219169083151502179055505050608082015181600a0160006101000a81548160ff0219169083151502179055509050507feea3f31353a0d1d573cfa6f57243f81ab40a67d29767e957a0f0d6dbe979cf5e3382600554604051808473ffffffffffffffffffffffffffffffffffffffff1673ffffffffffffffffffffffffffffffffffffffff168152602001838152602001828152602001935050505060405180910390a150565b60036000828152602001908152602001600020600a0160009054906101000a900460ff166110d357600080fd5b3373ffffffffffffffffffffffffffffffffffffffff16600160009054906101000a900473ffffffffffffffffffffffffffffffffffffffff1673ffffffffffffffffffffffffffffffffffffffff161461112d57600080fd5b3460036000838152602001908152602001600020600301600101546003600084815260200190815260200160002060010154011461116a57600080fd5b3460036000838152602001908152602001600020600201819055507f4ca09f9926d2e48ef31cb6b14dbda230c7420702b8a8f5b878dd572c593e99d233823442604051808573ffffffffffffffffffffffffffffffffffffffff1673ffffffffffffffffffffffffffffffffffffffff16815260200184815260200183815260200182815260200194505050505060405180910390a15056fea265627a7a72315820ec678f86edb4b7167393602085a50c8fbc70337a13730d56f996cc007f0ecd7764736f6c634300050c0032",
  "source": "pragma solidity 0.5.12;\r\n\r\ncontract Housing {\r\n    address payable public owner;\r\n\r\n    address payable public buyer;\r\n\r\n    address payable public registor;\r\n\r\n    struct Buyer {\r\n        address payable addr;\r\n        string name;\r\n\r\n        bool init;\r\n    }\r\n    struct Registor{\r\n        address payable regAdrr;\r\n        string regName;\r\n\r\n        bool init;\r\n    }\r\n    struct Registry {\r\n        address payable registor;\r\n        uint price;\r\n        uint safepay;\r\n        address payer;\r\n        uint date;\r\n        uint real_date;\r\n\r\n    bool init;\r\n  }\r\n  struct Ownership {\r\n    uint House_number;\r\n    uint price;\r\n    uint safepay;\r\n    Registry registry;\r\n\r\n    bool init;\r\n  }\r\n\r\n  struct Invoice {\r\n    uint orderno;\r\n    uint number;\r\n\r\n    bool init;\r\n  }\r\n\r\n    event sendOwnership(address payable buyer, uint House_number, uint orderno);\r\n\r\n    event BuyerRegistered(address payable buyerAddr, string name);\r\n\r\n    event RegistorRegistered(address payable registor, string regName);\r\n\r\n    event PriceSent(address payable buyerAddr, uint orderno, uint price, int8 ttype);\r\n\r\n    event SafepaySent(address payable buyer, uint orderno, uint value, uint now);\r\n\r\n     event InvoiceSent(address payable buyerAddr, uint invoiceno, uint orderno, uint delivery_date, address payable registor);\r\n\r\n    event OwnershipDelivered(address payable buyerAddr, uint orderno, uint real_delivey_date, address payable registor);\r\n\r\n    constructor() public payable {\r\n\r\n    owner = msg.sender;\r\n   }\r\n   function setBuyer(address payable addr) payable public{\r\n    buyer = addr;\r\n   }\r\n   function setRegistor(address payable addr) payable public{\r\n    registor = addr;\r\n   }\r\n    mapping (uint => Ownership) houses;\r\n    mapping (uint => Invoice) invoices;\r\n     uint ownershipseq;\r\n       uint invoiceseq;\r\n\r\n    function sendOwnershipInquiry(uint House_number) public {\r\n        require(msg.sender == buyer);\r\n\r\n        ownershipseq++;\r\n\r\n        houses[ownershipseq] = Ownership(House_number, 0, 0, Registry(registor, 0, 0, buyer, 0, 0, false), true);\r\n\r\n\r\n       emit sendOwnership(msg.sender, House_number, ownershipseq);\r\n\r\n    }\r\n    function getOwnershipInfo(uint number) public payable returns (address buyerAddr, uint House_number, uint orderno, uint safepay, uint delivery_price, uint delivey_safepay) {\r\n\r\n    require(houses[number].init);\r\n\r\n    return(buyerAddr, houses[number].House_number, houses[number].price, houses[number].safepay, houses[number].registry.price, houses[number].registry.safepay);\r\n  }\r\n  function sendPrice(uint orderno, uint price, int8 ttype) public {\r\n\r\n\r\n\r\n    require(houses[orderno].init);\r\n\r\n    require(ttype == 1 || ttype == 2);\r\n\r\n    if(ttype == 1){\r\n\r\n      houses[orderno].price = price;\r\n\r\n    } else {\r\n\r\n      houses[orderno].registry.price = price;\r\n      houses[orderno].registry.init  = true;\r\n    }\r\n\r\n    emit PriceSent(buyer, orderno, price, ttype);\r\n\r\n  }\r\n\r\n  function sendSafepay(uint House_number) payable public {\r\n\r\n    require(houses[House_number].init);\r\n\r\n    require(buyer == msg.sender);\r\n\r\n    require((houses[House_number].price + houses[House_number].registry.price) == msg.value);\r\n\r\n    houses[House_number].safepay = msg.value;\r\n\r\n    emit SafepaySent(msg.sender, House_number, msg.value, now);\r\n  }\r\n  function sendInvoice(uint House_number, uint delivery_date) public {\r\n\r\n    require(houses[House_number].init);\r\n\r\n    require(owner == msg.sender);\r\n\r\n    invoiceseq++;\r\n\r\n    invoices[invoiceseq] = Invoice(House_number, invoiceseq, true);\r\n\r\n    houses[House_number].registry.date    = delivery_date;\r\n    houses[House_number].registry.registor = registor;\r\n\r\n   emit InvoiceSent(buyer, invoiceseq, House_number, delivery_date, registor);\r\n  }\r\n\r\n  function getInvoice(uint invoiceno) public returns (address buyer, uint delivery_date, address registor){\r\n\r\n    require(invoices[invoiceno].init);\r\n\r\n    Invoice storage _invoice = invoices[invoiceno];\r\n    Ownership storage _currentOwner     = houses[_invoice.orderno];\r\n\r\n    return (buyer, _currentOwner.registry.date, _currentOwner.registry.registor);\r\n  }\r\n    function delivery(uint invoiceno, uint timestamp) payable public {\r\n\r\n    require(invoices[invoiceno].init);\r\n\r\n    Invoice storage _invoice = invoices[invoiceno];\r\n    Ownership storage _currentOwner     = houses[_invoice.orderno];\r\n\r\n    require(_currentOwner.registry.registor == msg.sender);\r\n\r\n    emit OwnershipDelivered(buyer, invoiceno, timestamp, _currentOwner.registry.registor);\r\n\r\n    owner.transfer(_currentOwner.safepay);\r\n\r\n    _currentOwner.registry.registor.transfer(_currentOwner.registry.safepay);\r\n\r\n  }\r\n} ",
  "sourcePath": "F:/Desktop/election-master/contracts/Housing.sol",
  "compiler": {
    "name": "solc",
    "version": "0.5.12+commit.7709ece9.Emscripten.clang"
  },
  "schemaVersion": "3.0.19",
  "updatedAt": "2019-12-20T08:09:34.645Z",
  "networkType": "ethereum",
  "devdoc": {
    "methods": {}
  },
  "userdoc": {
    "methods": {}
  }
}